{
  "_format": "hh-sol-artifact-1",
  "contractName": "Transactions",
  "sourceName": "contracts/Transactions.sol",
  "abi": [
    {
      "anonymous": false,
      "inputs": [
        {
          "indexed": false,
          "internalType": "address",
          "name": "from",
          "type": "address"
        },
        {
          "indexed": false,
          "internalType": "address",
          "name": "receiver",
          "type": "address"
        },
        {
          "indexed": false,
          "internalType": "uint256",
          "name": "amount",
          "type": "uint256"
        },
        {
          "indexed": false,
          "internalType": "string",
          "name": "message",
          "type": "string"
        },
        {
          "indexed": false,
          "internalType": "uint256",
          "name": "timestamp",
          "type": "uint256"
        },
        {
          "indexed": false,
          "internalType": "string",
          "name": "keyword",
          "type": "string"
        }
      ],
      "name": "Transfer",
      "type": "event"
    },
    {
      "inputs": [
        {
          "internalType": "address payable",
          "name": "receiver",
          "type": "address"
        },
        {
          "internalType": "uint256",
          "name": "amount",
          "type": "uint256"
        },
        {
          "internalType": "string",
          "name": "message",
          "type": "string"
        },
        {
          "internalType": "string",
          "name": "keyword",
          "type": "string"
        }
      ],
      "name": "addToBlockchain",
      "outputs": [],
      "stateMutability": "nonpayable",
      "type": "function"
    },
    {
      "inputs": [],
      "name": "getAllTransactions",
      "outputs": [
        {
          "components": [
            {
              "internalType": "address",
              "name": "sender",
              "type": "address"
            },
            {
              "internalType": "address",
              "name": "receiver",
              "type": "address"
            },
            {
              "internalType": "uint256",
              "name": "amount",
              "type": "uint256"
            },
            {
              "internalType": "string",
              "name": "message",
              "type": "string"
            },
            {
              "internalType": "uint256",
              "name": "timestamp",
              "type": "uint256"
            },
            {
              "internalType": "string",
              "name": "keyword",
              "type": "string"
            }
          ],
          "internalType": "struct Transactions.TransferStruct[]",
          "name": "",
          "type": "tuple[]"
        }
      ],
      "stateMutability": "view",
      "type": "function"
    },
    {
      "inputs": [],
      "name": "getTransactionCount",
      "outputs": [
        {
          "internalType": "uint256",
          "name": "",
          "type": "uint256"
        }
      ],
      "stateMutability": "view",
      "type": "function"
    }
  ],
  "bytecode": "0x608060405234801561001057600080fd5b506109cf806100206000396000f3fe608060405234801561001057600080fd5b50600436106100415760003560e01c806327506f53146100465780632e7700f014610064578063cc2d7ead14610082575b600080fd5b61004e61009e565b60405161005b919061067b565b60405180910390f35b61006c6100a3565b604051610079919061069d565b60405180910390f35b61009c600480360381019061009791906103a3565b6100ac565b005b606090565b60008054905090565b60016000808282546100be919061077f565b9250508190555060016040518060c001604052803373ffffffffffffffffffffffffffffffffffffffff1681526020018673ffffffffffffffffffffffffffffffffffffffff16815260200185815260200184815260200142815260200183815250908060018154018082558091505060019003906000526020600020906006020160009091909190915060008201518160000160006101000a81548173ffffffffffffffffffffffffffffffffffffffff021916908373ffffffffffffffffffffffffffffffffffffffff16021790555060208201518160010160006101000a81548173ffffffffffffffffffffffffffffffffffffffff021916908373ffffffffffffffffffffffffffffffffffffffff1602179055506040820151816002015560608201518160030190805190602001906101fd92919061026e565b506080820151816004015560a082015181600501908051906020019061022492919061026e565b5050507f416cfa4330a4565f45c2fd2dd4826a83a37443aba2ce6f79477c7355afac35fa3385858542866040516102609695949392919061060c565b60405180910390a150505050565b82805461027a9061089b565b90600052602060002090601f01602090048101928261029c57600085556102e3565b82601f106102b557805160ff19168380011785556102e3565b828001600101855582156102e3579182015b828111156102e25782518255916020019190600101906102c7565b5b5090506102f091906102f4565b5090565b5b8082111561030d5760008160009055506001016102f5565b5090565b600061032461031f846106e9565b6106b8565b90508281526020810184848401111561033c57600080fd5b610347848285610859565b509392505050565b60008135905061035e8161096b565b92915050565b600082601f83011261037557600080fd5b8135610385848260208601610311565b91505092915050565b60008135905061039d81610982565b92915050565b600080600080608085870312156103b957600080fd5b60006103c78782880161034f565b94505060206103d88782880161038e565b935050604085013567ffffffffffffffff8111156103f557600080fd5b61040187828801610364565b925050606085013567ffffffffffffffff81111561041e57600080fd5b61042a87828801610364565b91505092959194509250565b6000610442838361055e565b905092915050565b61045381610823565b82525050565b610462816107d5565b82525050565b610471816107d5565b82525050565b600061048282610729565b61048c818561074c565b93508360208202850161049e85610719565b8060005b858110156104da57848403895281516104bb8582610436565b94506104c68361073f565b925060208a019950506001810190506104a2565b50829750879550505050505092915050565b60006104f782610734565b610501818561075d565b9350610511818560208601610868565b61051a8161095a565b840191505092915050565b600061053082610734565b61053a818561076e565b935061054a818560208601610868565b6105538161095a565b840191505092915050565b600060c0830160008301516105766000860182610459565b5060208301516105896020860182610459565b50604083015161059c60408601826105ee565b50606083015184820360608601526105b482826104ec565b91505060808301516105c960808601826105ee565b5060a083015184820360a08601526105e182826104ec565b9150508091505092915050565b6105f781610819565b82525050565b61060681610819565b82525050565b600060c0820190506106216000830189610468565b61062e602083018861044a565b61063b60408301876105fd565b818103606083015261064d8186610525565b905061065c60808301856105fd565b81810360a083015261066e8184610525565b9050979650505050505050565b600060208201905081810360008301526106958184610477565b905092915050565b60006020820190506106b260008301846105fd565b92915050565b6000604051905081810181811067ffffffffffffffff821117156106df576106de61092b565b5b8060405250919050565b600067ffffffffffffffff8211156107045761070361092b565b5b601f19601f8301169050602081019050919050565b6000819050602082019050919050565b600081519050919050565b600081519050919050565b6000602082019050919050565b600082825260208201905092915050565b600082825260208201905092915050565b600082825260208201905092915050565b600061078a82610819565b915061079583610819565b9250827fffffffffffffffffffffffffffffffffffffffffffffffffffffffffffffffff038211156107ca576107c96108cd565b5b828201905092915050565b60006107e0826107f9565b9050919050565b60006107f2826107f9565b9050919050565b600073ffffffffffffffffffffffffffffffffffffffff82169050919050565b6000819050919050565b600061082e82610835565b9050919050565b600061084082610847565b9050919050565b6000610852826107f9565b9050919050565b82818337600083830152505050565b60005b8381101561088657808201518184015260208101905061086b565b83811115610895576000848401525b50505050565b600060028204905060018216806108b357607f821691505b602082108114156108c7576108c66108fc565b5b50919050565b7f4e487b7100000000000000000000000000000000000000000000000000000000600052601160045260246000fd5b7f4e487b7100000000000000000000000000000000000000000000000000000000600052602260045260246000fd5b7f4e487b7100000000000000000000000000000000000000000000000000000000600052604160045260246000fd5b6000601f19601f8301169050919050565b610974816107e7565b811461097f57600080fd5b50565b61098b81610819565b811461099657600080fd5b5056fea26469706673582212201504ba7bab2934291f227317d89073c6fb11a36905cfbf8d9565337e50ee5ca064736f6c63430008000033",
  "linkReferences": {},
  "deployedLinkReferences": {}
}